:0B09B500543A0054483A00544C3A00F9
:10055A001209ED8F191209567BFF7A0979B57D01C7
:10056A007F0112082B7BFF7A0979B87D017F02127D
:10057A00082B7BFF7A0979BC7D097F0212082B12AE
:10058A00099C1207B08F188E178D168C15E4FFFE82
:10059A00FDFCAB18AA17A916A8151202A1501E7BBA
:1005AA002D7D037F011209CAAF18AE17AD16AC151F
:1005BA0012031A8F188E178D168C1580097B2B7DC6
:1005CA00037F011209CAAF18AE17AD16AC15120394
:1005DA0069AB07AA06750C037D047F011208AC7B80
:1005EA002E7D077F011209CAE4FFFE7DC87C42AB5B
:1005FA0018AA17A916A8151200FBE4FBFAF9783F06
:10060A0012000A120369E47B64FAF9F81204BA7553
:10061A000C027D087F011208ACE5197003020589F6
:10062A00B401020514E519B402021514E519B4035C
:10063A00020513E519B404021513E514FB3395E01A
:10064A00FA750C037D047F02120669E513FB3395E4
:0F065A00E0FA750C037D0C7F0212066902058918
:10094100EF1FAC0670011E4C600A7D027CC7DCFE05
:04095100DDFC80EC5D
:01095500227F
:0D099C001208E57FCC1208047F4402080415
:1007B0001208E57FCC1208047FBE1208041208C993
:1007C0008F081208C9EFFEE508FFFDAC06EC120326
:0B07D00030E4FBFA798078410202045B
:06098D00C2A58F80D2A775
:080993007F027EEFDEFEDFFCB7
:01099B002239
:0A09C000C2A612098DC2A702099316
:10087000CFCDCFCECCCE1204297C007D0A12042924
:04088000ED2430FF34
:0A088400D2A612098DC2A702099343
:10091500AE07BE0104ED148006BE0209ED243F4476
:0609250080FF1209C02250
:100956007F381209C07F0C1209C07F061209C07FBA
:04096600010209C0C1
:0A09CA00AC03120915AF0402088403
:06082B008B088A09890A0E
:10083100120915E4FDAB08AA09A90A8D8275830086
:0C0841001203EAFF60061208840D80E933
:01084D002288
:0C074D007F0AEA24FFFDE434FFFC7E007C
:080759008E0F8F108C118D1220
:100761007F017E00E4FBEBC39512E5116480F87410
:0E0771008098500AAC0FAD101204170B80E8F0
:01077F002257
:0408AC008A0A8B0B1E
:1008B000120915AA0CEAD39400400D12074DAC0A98
:0808C000AD0B1208701A80ED67
:0108C800220D
:10066900120915C3EA64809480400B7F2B12088419
:100679008A0D8B0E800E7F2D120884C3E49BF50E24
:10068900E49AF50DAA0CEAD39400400D12074DAC7B
:090699000DAD0E1208701A80ED7F
:0106A2002235
:0406A3008A1C8B1D05
:1006A700120915AA1EEAD3940040297F1012074F9A
:1006B700AC1CAD1DCFCDCFCECCCE120429EF540F3D
:1006C700FEC3940AEE5004243080022437FF120838
:0406D700841A80D130
:0106DB0022FC
:040715008A238B2484
:10071900120915AA25EAD394004028EA24FFFDE42A
:1007290034FFFC7F027E00120759AC23AD24CFCDE4
:10073900CFCECCCE120429EF54012430FF12088405
:030749001A80D241
:01074C00228A
:10084E008F298D2A1209D47FA01207DB12096AAFF5
:10085E00291207DB12096AAF2A1207DB12096A0294
:02086E0009E699
:020780008F2BBD
:100782001209D47FA01207DB12096AAF2B1207DB12
:1007920012096A1209D47FA11207DB12096A120830
:0D07A2008E8F2CD2001209DD1209E6AF2C5B
:0107AF002227
:0909D400D2A0D2A1C2A0C2A1224E
:0709E600C2A0D2A1D2A022A1
:0207DB00AD0768
:1007DD00E4FB74807E00A803088006CEA2E713CE4A
:1007ED0013D8F8FFEDF582EF558224FF92A0D2A128
:0607FD00C2A10BBB08DCE9
:0108030022D2
:10088E00E4FFD2A0FED2A130A00D7480A80608808D
:0D089E0002C313D8FC4207C2A10EBE08E839
:0108AB00222A
:0909DD00A20092A0D2A1C2A12245
:10096A00D2A0D2A130A004D2018002C201C2A1A2A7
:01097A00017B
:01097B002259
:1008E500D2B7C2B77FE3DFFED2B77F1DDFFEA2B767
:0808F50092027FE3DFFEA20284
:0108FD0022D8
:10097C00C2B77F02DFFEA20292B77F16DFFED2B7AC
:01098C002248
:1008FE00C2B77F01DFFED2B77F01DFFEA2B7920241
:06090E007F14DFFEA202CF
:0109140022C0
:02080400AD073E
:10080600E4FB74017E00A803088005C333CE33CE13
:10081600D8F9FFEDF582EF558224FF920212097C8A
:040826000BBB08DE22
:01082A0022AB
:1008C900E4FEFD1208FE500D7401A805088002C35C
:0B08D90033D8FC42060DBD08EAAF0654
:0108E40022F1
:0509ED00E4AF28F5282D
:0109F20022E2
:10092B00E4FF20B1010F20B0027F0220B2027F034F
:05093B0020B3027F045F
:010940002294
:1006DC0085262712092B8F26E527B40107E52670FE
:1006EC0003752801E527B40207E526700375280277
:1006FC00E527B40307E5267003752803E527B40442
:08070C0007E5267003752804BF
:0107140022C2
:100003000203D5E86480F8E933E83360110460F053
:10001300ED33EC337009E8FCE9FDEAFEEBFF220463
:1000230060DED3EB9FEA9EE99DE8C2E78CF0C2F75E
:1000330095F0400CE8CCF8E9CDF9EACEFAEBCFFB2A
:100043001203A085D0F05804700320D5B3E80470E0
:10005300075002B2D50203DF92D5EC0460F7E4CC7B
:10006300C0E0C398F8603B94186008400DD0E0FBF3
:100073000203B7E4FBFAC9FC8028E830E406E4C9CC
:10008300FBE4CAFCE830E305E4C9CACBFCE8540747
:100093006010F8C3E913F9EA13FAEB13FBEC13FC52
:1000A300D8F130F52FC3E49CFCEF9BFFEE9AFEEDF5
:1000B30099FDD0E0FBEF4E4D4C701222DB0302039F
:1000C300DCEC2CFCEF33FFEE33FEED33FDED30E7DC
:1000D300EB0203B7EF2BFFEE3AFEED39FDD0E0FB69
:1000E30050130BBB00030203DFED13FDEE13FEEF12
:0800F30013FFEC13FC0203B73C
:1000FB00EC4D6011E8497017ED33EC3304600DE4FF
:10010B00FCFFFEFD22E933E8330470F80203D5123D
:10011B0003A058046009E4CC24815006285009023E
:10012B0003DF2840030203DCC0E0EB4A7044B980D4
:10013B0006D0E0FB0203CBEF4E701CBD8008EBFF3B
:10014B00EAFEE9FD80EBE98DF0A4FEE5F00201E4A7
:10015B00E9CDF9EAFEEBFFEF89F0A4FCE5F0CE89DF
:10016B00F0A42EFFE435F0CD89F0A42DFEE435F09C
:10017B008067EF4E7005BD80D780C3EF8BF0A4ACCA
:10018B00F0EE8BF0A42CFCE435F0F8EF8AF0A42C05
:10019B00E5F038FCE433CB8DF0A42CFCE5F03BF818
:1001AB00EE8AF0A42CFCE5F038F8E433CF89F0A408
:1001BB002CFCE5F038CF3400CE89F0A42FFFE5F00E
:1001CB003EFEE433C98DF0A42EFEE5F039CD8AF066
:1001DB00A42FFFE5F03EFEE43DFD33D0E0FB5007DE
:1001EB000BBB000F0203DFEC2CFCEF33FFEE33FEF7
:0601FB00ED33FD0203B725
:100201000203DFEC5D046005E8590470030203D5C5
:100211001203A0580460F6EC4860F2EC7004FDFE95
:10022100FF22C860DB2481C85009C39860025006D0
:100231000203DC9850CAF582E9294B4A7005AB826A
:100241000203CB75F0007C1A7880C3EF9BEE9AED28
:1002510099400DC3EF9BFFEE9AFEED99FDE842F048
:10026100DC23ACF0D0E0FFD0E0FED0E0FDAB82209B
:10027100E7101BEB60BAEC2CFCEF33FFEE33FEED25
:1002810033FD0203B7E803F830E705C0F075F0006D
:10029100EF2FFFEE33FEED33FD40B830E7C280AA09
:1002A10074F8CC6480CCC86480C8F58204604FC304
:1002B100EB9FF5F0EA9E42F0E99D42F0E89C45F0A3
:1002C100603C501DE5825FFFE582D313CB5BCBF42D
:1002D1002B5582FB50280ABA002409B90020088056
:1002E1001DE5825BFBE582D313CF5FCFF4C3132FF0
:1002F1005582FF50090EBE00050DBD00010CC3EB78
:100301009FF5F0EA9E42F0E99D42F0E89C45F060DD
:0903110007CC4820E701B3EC22FF
:10031A00ED33EC33600A047003BD8004ECB2E7FCF1
:01032A0022B0
:10032B0075F020800E75F010800575F0087D007E4D
:10033B00007F003392D530D50312054CEC334010BF
:10034B00EF33FFEE33FEED33FDEC33FCD5F0ED2256
:0E035B00E5F0247EA2D513CC92E7CDCEFF2292
:10036900EDD2E7CD33EC3392D524814006E4FFFE8C
:10037900FDFC22FCE4CFCECDCC24E0501174FF80EB
:10038900EDC3CC13CCCD13CDCE13CECF13CF047088
:07039900F030D5DE02054C37
:1003A000E9D2E7C933E833F892D5EDD2E7CD33ECA3
:0703B00033FC5002B2D5221C
:1003B700EC30E7100FBF000C0EBE00080DBD0004A7
:1003C7000BEB6014A2D5EB13FCED92E7FD2274FF53
:1003D700FCFDFEFF22E480F8A2D574FF13FC7D80AC
:0303E700E480EFC0
:030000000209A949
:0C09A900787FE4F6D8FD75812C02055A19
:1003EA00BB010CE58229F582E5833AF583E02250C8
:1003FA0006E92582F8E622BBFE06E92582F8E22212
:0D040A00E58229F582E5833AF583E493222B
:10041700EF8DF0A4A8F0CF8CF0A428CE8DF0A42EF9
:02042700FE22B3
:10042900BC000BBE0029EF8DF084FFADF022E4CCB7
:10043900F875F008EF2FFFEE33FEEC33FCEE9DEC80
:10044900984005FCEE9DFE0FD5F0E9E4CEFD22EDC6
:10045900F8F5F0EE8420D21CFEADF075F008EF2F10
:10046900FFED33FD4007985006D5F0F222C398FD01
:050479000FD5F0EA229E
:10047E0075F008758200EF2FFFEE33FECD33CDCC35
:10048E0033CCC58233C5829BED9AEC99E5829840B8
:10049E000CF582EE9BFEED9AFDEC99FC0FD5F0D695
:1004AE00E4CEFBE4CDFAE4CCF9A88222B800C1B9BF
:1004BE000059BA002DEC8BF084CFCECDFCE5F0CBFD
:1004CE00F97818EF2FFFEE33FEED33FDEC33FCEB36
:1004DE0033FB10D703994004EB99FB0FD8E5E4F9F1
:1004EE00FA227818EF2FFFEE33FEED33FDEC33FCDE
:1004FE00C933C910D7059BE99A4007EC9BFCE99AD2
:10050E00F90FD8E0E4C9FAE4CCFB2275F010EF2F16
:10051E00FFEE33FEED33FDCC33CCC833C810D70716
:10052E009BEC9AE899400AED9BFDEC9AFCE899F851
:0E053E000FD5F0DAE4CDFBE4CCFAE4C8F922E4
:0E054C00C3E49FFFE49EFEE49DFDE49CFC22C0
:00000001FF
