:0300000002000EED
:0C000E00787FE4F6D8FD7581650200558E
:10014400F921F980F9E1FA36FA8CFAD8FB23FB6835
:10015400FBAAFBE9FC23FC5FFC8FFCC0FCEFFD1B4E
:10016400FD45FD6CFD91FDB4FDD5FDF4FE12FE2EA2
:10017400FE47FE60FE77FE8EFEA3FEB6FEC8FEDAE4
:08018400FEEBFEFAFF09FF1774
:10009A00202A32000007070909070505040402029D
:1000AA000007070505040402070705050404020002
:1000BA0000070709090705050404020200202A08A7
:1000CA000101010101010201010101010102010114
:1000DA000101010102010101010101020101010104
:0A00EA000101020101010101010200
:1001CB00BFFF05C28CC2A522EF25E02444F582E4D3
:1001DB003401F583E493F55C740193F55DE55CF50F
:0801EB008CE55DF58AD28C223F
:0600F5008B5E8A5F89604A
:1000FB00E4F565E565C39564503EAB5EAA5FA96008
:10010B0085658275830012018CFF1201CBAB61AA4E
:10011B0062A96385658275830012018CFF7E007C6A
:10012B00017DF41201B912022BC28CC2A57F647E31
:08013B000012022B056580BBD8
:010143002299
:1001F30012021475610075620075630875642A7BC9
:10020300007A0079321200F57FD07E0712022B802C
:01021300E208
:03000B00020240AE
:0E024000C0E0E55CF58C855D8AB2A5D0E032A9
:10022B00EF1FAC0670011E4C600A7D027CC7DCFE22
:04023B00DDFC80EC7A
:01023F00229C
:100214005389F0438901758CFC758A18C28DD28C80
:07022400D2A9D2AFC2B9223A
:10001A000201F3E493A3F8E493A34003F68001F208
:10002A0008DFF48029E493A3F85407240CC8C333E7
:10003A00C4540F4420C8834004F456800146F6DFB6
:10004A00E4800B010204081020408090009AE47EAC
:10005A00019360BCA3FF543F30E509541FFEE493AB
:10006A00A360010ECF54C025E060A840B8E493A372
:10007A00FAE493A3F8E493A3C8C582C8CAC583CA9D
:10008A00F0A3C8C582C8CAC583CADFE9DEE780BE55
:0100F400000B
:10018C00BB010CE58229F582E5833AF583E0225028
:10019C0006E92582F8E622BBFE06E92582F8E22272
:0D01AC00E58229F582E5833AF583E493228C
:1001B900EF8DF0A4A8F0CF8CF0A428CE8DF0A42E5A
:0201C900FE2214
:00000001FF
