:1003D300EF1FAC0670011E4C600A7D027CC7DCFE79
:0403E300DDFC80ECD1
:0103E70022F3
:06040D00C2A58F80D2A7FA
:080413007F027EEFDEFEDFFC3C
:01041B0022BE
:0A045800C2A612040DC2A70204138D
:10036400CFCDCFCECCCE1201917C007D0A1201916B
:04037400ED2430FF45
:0A037800D2A612040DC2A70204135E
:1003BD00AE07BE0104ED148006BE0209ED243F44D4
:0603CD0080FF120458221B
:1003E8007F381204587F0C1204587F061204587F75
:0403F80001020458A2
:0A046200AC031203BDAF04020378DF
:060341008B158A168917D6
:100347001203BDE4FDAB15AA16A9178D82758300AC
:0C035700120152FF60061203780D80E9CD
:010363002277
:0C030E007F0AEA24FFFDE434FFFC7E00BF
:08031A008E1A8F1B8C1C8D1D37
:100322007F017E00E4FBEBC3951DE51C6480F8743D
:0E0332008098500AAC1AAD1B12017F0B80E8B8
:01034000229A
:0403A0008A178B1815
:1003A4001203BDAA19EAD39400400D12030EAC1730
:0803B400AD181203641A80ED7C
:0103BC00221E
:100263001203BDC3EA64809480400B7F2B12037892
:100273008A238B24800E7F2D120378C3E49BF524FD
:10028300E49AF523AA22EAD39400400D12030EAC9C
:0902930023AD241203641A80ED6E
:01029C00223F
:04029D008A178B1819
:1002A1001203BDAA19EAD3940040297F101203104A
:1002B100AC17AD18CFCDCFCECCCE120191EF540FEC
:1002C100FEC3940AEE5004243080022437FF120347
:0402D100781A80D146
:0102D5002206
:0402D6008A2E8B2FB2
:1002DA001203BDAA30EAD394004028EA24FFFDE4C1
:1002EA0034FFFC7F027E0012031AAC2EAD2FCFCD55
:1002FA00CFCECCCE120191EF54012430FF120378F5
:03030A001A80D284
:01030D0022CD
:10038200414444522020434D4420204E554D0030DC
:0E03920030202020203030202020303030005D
:1001E6001203E87BFF7A0379827D017F01120341C6
:1001F6007BFF7A0379917D017F0212034112047B12
:1002060012041CEF7006120429EF60F412048175C3
:100216002A008F2B1204847528008F29751902ABCA
:100226002BAA2A7D017F0212029D751902AB29AA0B
:10023600287D077F0212029DE52964154528700274
:100246001527E5296409452870020527E527FB7A65
:0D025600007519037D0C7F021203A080A328
:0B044200D288C289D2A8D2AFD2B82263
:1003FC005389F0438901C28DC28C758A66758CFC59
:01040C0022CD
:0B044D00AD07AC068C8CAF058F8A2237
:09046C00AF8CEFFEAD8AEDFF221A
:06047500EF24FF928C222F
:06047B001203FC02044222
:0D041C00E50F6006E4F50F7F01227F00224E
:0D042900E50E6006E4F50E7F01227F002243
:03048100AF0C229B
:03048400AF0B2299
:03000300020006F2
:10000600C0E0C0F0C083C082C0D075D000C000C0C0
:1000160001C002C003C004C005C006C007E50870E1
:100026000CFFFE12044D7F011204758049E5086439
:1000360001704912046C8E098F0AE4FFFE12044D0A
:10004600D3E50A94CDE509942E4010E50A9466E5B9
:100056000994325006750802020137D3E50A94B3B3
:10006600E50994264010E50A944DE509942A5006C0
:10007600750E0102012F750801020137E5086402B9
:10008600600302013712046C8E098F0AE4FFFE1228
:10009600044DD3E50A943BE5099402402CE50A9405
:1000A600D5E50994055022E50D131313541F2411A9
:1000B600F8C000E6FFE50D5407FE7401A8060880A7
:1000C60002C333D8FCF45F8034D3E50A944DE509C6
:1000D60094064030E50A94E7E50994095026E50DB3
:1000E600131313541F2411F8C000E6FFE50D54073F
:1000F600FE7401A806088002C333D8FC4FD000F670
:10010600050D8006750D00750801E50DC3942040A8
:1001160020750D00E512F4B5110FE514F4B51309B9
:10012600750F0185110C85130BE4FF120475750814
:1001360000D007D006D005D004D003D002D001D01D
:0C01460000D0D0D082D083D0F0D0E032C6
:03000000020436C1
:0C043600787FE4F6D8FD7581300201E605
:10015200BB010CE58229F582E5833AF583E0225062
:1001620006E92582F8E622BBFE06E92582F8E222AC
:0D017200E58229F582E5833AF583E49322C6
:10017F00EF8DF0A4A8F0CF8CF0A428CE8DF0A42E94
:02018F00FE224E
:10019100BC000BBE0029EF8DF084FFADF022E4CC52
:1001A100F875F008EF2FFFEE33FEEC33FCEE9DEC1B
:1001B100984005FCEE9DFE0FD5F0E9E4CEFD22ED61
:1001C100F8F5F0EE8420D21CFEADF075F008EF2FAB
:1001D100FFED33FD4007985006D5F0F222C398FD9C
:0501E1000FD5F0EA2239
:00000001FF
