:100320005772697465204F4B002020202020202028
:10033000200052656164204F4B00202020202020A7
:0203400020009B
:100003001203E81201658F1FE51FB40115051EE5F4
:100013001E7002051D750C05FBAA1D7D017F0112D3
:1000230003A0E51FB40216E51E151E7002151D750B
:100033000C05AB1EAA1D7D017F011203A0E51F6401
:1000430003703DAD1EFF1203427F057E001203D3F2
:10005300E51DFD7F011203427F057E001203D37B62
:10006300FF7A0379207D017F021202FD7FE87E0380
:100073001203D37BFF7A0379297D017F021202FDEC
:10008300E51F64046003020006FF1202A4751D004D
:100093008F1E7F011202A4EFFEEE421D750C05AB0D
:1000A3001EAA1D7D017F011203A07BFF7A03793213
:1000B3007D017F021202FD7FE87E031203D37BFFE3
:0E00C3007A03793A7D017F021202FD020006E7
:1003D300EF1FAC0670011E4C600A7D027CC7DCFE79
:0403E300DDFC80ECD1
:0103E70022F3
:10016500E4F50820B1137F14FE1203D330B1FD7FEF
:10017500147E001203D375080120B0147F147E008D
:100185001203D330B0FD7F147E001203D37508022D
:1001950020B2147F147E001203D330B2FD7F147E8B
:1001A500001203D375080320B3147F147E001203D5
:1001B500D330B3FD7F147E001203D3750804AF0856
:0101C5002217
:06040E00C2A58F80D2A7F9
:080414007F027EEFDEFEDFFC3B
:01041C0022BD
:0A042900C2A612040EC2A7020414BA
:10036400CFCDCFCECCCE1201107C007D0A1201106D
:04037400ED2430FF45
:0A037800D2A612040EC2A70204145C
:1003BD00AE07BE0104ED148006BE0209ED243F44D4
:0603CD0080FF120429224A
:1003E8007F381204297F0C1204297F061204297F02
:0403F80001020429D1
:0A043300AC031203BDAF040203780E
:0602FD008B088A09890A42
:100303001203BDE4FDAB08AA09A90A8D8275830017
:0C0313001200D1FF60061203780D80E993
:01031F0022BB
:0C0271007F0AEA24FFFDE434FFFC7E005D
:08027D008E0D8F0E8C0F8D1009
:100285007F017E00E4FBEBC39510E50F6480F874F5
:0E0295008098500AAC0DAD0E1200FE0B80E8F2
:0102A3002238
:0403A0008A0A8B0B2F
:1003A4001203BDAA0CEAD39400400D120271AC0AE8
:0803B400AD0B1203641A80ED89
:0103BC00221E
:1001C6001203BDC3EA64809480400B7F2B12037830
:1001D6008A168B17800E7F2D120378C3E49BF517C2
:1001E600E49AF516AA15EAD39400400D120271ACF2
:0901F60016AD171203641A80ED26
:0101FF0022DD
:040200008A1A8B1BB0
:100204001203BDAA1CEAD3940040297F1012027382
:10021400AC1AAD1BCFCDCFCECCCE120110EF540F04
:10022400FEC3940AEE5004243080022437FF1203E4
:04023400781A80D1E3
:0102380022A3
:040239008A238B2465
:10023D001203BDAA25EAD394004028EA24FFFDE469
:10024D0034FFFC7F027E0012027DAC23AD24CFCDA6
:10025D00CFCECCCE120110EF54012430FF12037813
:03026D001A80D222
:01027000226B
:09043D00D2A0D2A1C2A0C2A122EA
:07044F00C2A0D2A1D2A0223D
:0202D400AD0774
:1002D600E4FB74807E00A803088006CEA2E713CE56
:1002E60013D8F8FFEDF582EF558224FF92A0D2A134
:0602F600C2A10BBB08DCF5
:0102FC0022DF
:10038200E4FFD2A0FED2A130A00D7480A80608809E
:0D03920002C313D8FC4207C2A10EBE08E84A
:01039F00223B
:09044600A20092A0D2A1C2A122E1
:1003FC00D2A0D2A130A004D2008002C200C2A1A21D
:01040C0000EF
:01040D0022CC
:100342008F088D0912043D7FA01202D41203FCAF64
:10035200081202D41203FCAF091202D41203FC02E7
:02036200044F46
:0202A4008F08C1
:1002A60012043D7FA01202D41203FCAF081202D43E
:1002B6001203FC12043D7FA11202D41203FC1203A6
:0D02C600828F09D20012044612044FAF09C6
:0102D3002208
:0300000002041DDA
:0C041D00787FE4F6D8FD7581250200030D
:1000D100BB010CE58229F582E5833AF583E02250E4
:1000E10006E92582F8E622BBFE06E92582F8E2222E
:0D00F100E58229F582E5833AF583E4932248
:1000FE00EF8DF0A4A8F0CF8CF0A428CE8DF0A42E16
:02010E00FE22CF
:10011000BC000BBE0029EF8DF084FFADF022E4CCD3
:10012000F875F008EF2FFFEE33FEEC33FCEE9DEC9C
:10013000984005FCEE9DFE0FD5F0E9E4CEFD22EDE2
:10014000F8F5F0EE8420D21CFEADF075F008EF2F2C
:10015000FFED33FD4007985006D5F0F222C398FD1D
:050160000FD5F0EA22BA
:00000001FF
