:10006800EF1FAC0670011E4C600A7D027CC7DCFEE7
:04007800DDFC80EC3F
:01007C002261
:1000030075985043878053890F438920758BF47506
:0D0013008DF4C2B9C2ABD28ED2ACD2AF22F6
:080089008F993099FDC2992204
:0500910012000380FED7
:03002300020026B2
:10002600C0E0C0F0C083C082C0D075D000C000C0A0
:1000360001C002C003C004C005C006C0073098074F
:10004600AF99120089C298D007D006D005D004D047
:1000560003D002D001D000D0D0D082D083D0F0D04F
:02006600E03286
:0300000002007D7E
:0C007D00787FE4F6D8FD75810702009141
:00000001FF
