:1001150011083F065B4F666D7D077F6F777C395E03
:03012500797100ED
:10012900AE071FEE600A7E027DC7DDFEDEFC80F0B1
:0101390022A3
:10008F00EF14B4080050529000A475F003A4C58378
:10009F0025F0C583730200BC0200C00200C4020039
:1000AF00C80200CC0200D40200DC0200E4D2A4801B
:1000BF000ED2A48012D2A48016D2A4801EC2A4D2C3
:1000CF00A3D2A2801AC2A4D2A3C2A28012C2A4C277
:1000DF00A3D2A2800AC2A48002C2A4C2A3C2A274E5
:0F00EF00082DF8E6F5807F01120129E4F5802243
:1000FE00E4FBFAEB04FDFF12008F0BBB00010AEBD1
:07010E0064084A70EE80E96D
:03000000020003F8
:0C000300787FE4F6D8FD75811802004AF1
:10000F000200FEE493A3F8E493A34003F68001F209
:10001F0008DFF48029E493A3F85407240CC8C333F2
:10002F00C4540F4420C8834004F456800146F6DFC1
:10003F00E4800B0102040810204080900115E47E3B
:10004F00019360BCA3FF543F30E509541FFEE493B6
:10005F00A360010ECF54C025E060A840B8E493A37D
:10006F00FAE493A3F8E493A3C8C582C8CAC583CAA8
:10007F00F0A3C8C582C8CAC583CADFE9DEE780BE60
:0101280000D6
:00000001FF
