:0C02B500022100000223000002250000CE
:10000E001203861203F38F28E528B40102B200E52D
:10001E0028B40207E4F52BF52AF529E528640370C8
:10002E0029AD2AFF12032D7F057E001203B3AD29E1
:10003E007F0112032D7F057E001203B3AD2B7F02CD
:10004E0012032D7F057E001203B3E528B40415E4D8
:10005E00FF1202858F2A7F011202858F297F0212DD
:10006E0002858F2BE52B75F00A84FD7F01120003AC
:10007E00E52B75F00A84ADF07F021200037D0B7F35
:10008E0003120003E52975F00A84FD7F04120003B4
:10009E00E52975F00A84ADF07F051200037D0B7F14
:1000AE0006120003E52A75F00A84FD7F071200038D
:1000BE00E52A75F00A84ADF07F08120003020011E4
:10030700300022052AE52AC394644019E4F52A053A
:1003170029E529943C400E052BE4F529E52B943C6F
:060327004003E4F52B2267
:03000B000200CE22
:1000CE00C0E0C0F0C083C082C0D075D000C000C0F8
:0D00DE0001C002C003C004C005C006C00779
:1000EB00758CFC758D170522E52270020521C394D2
:1000FB000AE5219400400975210075220012024C7B
:10010B000524E52470020523C39402E523940040E3
:10011B000975230075240012036D0526E526700270
:10012B000525C3940AE5259400400975250075261D
:04013B0000120307A4
:10013F00D007D006D005D004D003D002D001D00014
:0B014F00D0D0D082D083D0F0D0E032BE
:1003B300EF1FAC0670011E4C600A7D027CC7DCFE99
:0403C300DDFC80ECF1
:0103C7002213
:0503F300E4AF2EF52E21
:0103F80022E2
:10039D00E4FF20B1010F20B0027F0220B2027F03E3
:0503AD0020B3027F04F3
:0103B2002228
:10024C00852C2D12039D8F2CE52DB40107E52C7008
:10025C0003752E01E52DB40207E52C7003752E02F3
:10026C00E52DB40307E52C7003752E03E52DB404BE
:08027C0007E52C7003752E0448
:010284002257
:1002C1000C123F065B4F666D7D077F6F0040090989
:0C02D100000A0A0A0A0A0A0A0A010801C7
:0700030074092FF8A6052285
:1001E600E4F580EF14B4080050549001FE75F00356
:1001F600A4C58325F0C5837302021602021A020201
:100206001E02022202022602022E02023602023ECC
:10021600D2A4800ED2A48012D2A48016D2A4801AB0
:10022600C2A4D2A3D2A28016C2A4D2A3C2A2800E16
:10023600C2A4C2A3D2A28006C2A4C2A3C2A274123E
:060246002DF8E6F5802210
:10036D0074092508F8E6FDAF081201E60508E50851
:08037D00D39408400375080148
:010385002255
:100386005389F0438901C28DD28C758CFC758A180D
:07039600D2A9D2AFC2B922C7
:10032D008F1E8D1F1203DA7FA01202DE1203C8AFDB
:10033D001E1202DE1203C8AF1F1202DE1203C80224
:02034D0003ECBF
:020285008F1ECA
:100287001203DA7FA01202DE1203C8AF1E1202DECB
:100297001203C81203DA7FA11202DE1203C8120387
:0D02A7004F8F1FD2011203E31203ECAF1FB3
:0102B4002227
:0903DA00D2A0D2A1C2A0C2A1224E
:0703EC00C2A0D2A1D2A022A1
:0202DE00AD076A
:1002E000E4FB74807E00A803088006CEA2E713CE4C
:1002F00013D8F8FFEDF582EF558224FF92A0D2A12A
:06030000C2A10BBB08DCEA
:0103060022D4
:10034F00E4FFD2A0FED2A130A00D7480A8060880D1
:0D035F0002C313D8FC4207C2A10EBE08E87D
:01036C00226E
:0903E300A20192A0D2A1C2A12244
:1003C800D2A0D2A130A004D2018002C201C2A1A24F
:0103D8000123
:0103D9002201
:0300000002015AA0
:0C015A00787FE4F6D8FD75812E0201A12B
:1001660002000EE493A3F8E493A34003F68001F2A1
:1001760008DFF48029E493A3F85407240CC8C3339A
:10018600C4540F4420C8834004F456800146F6DF69
:10019600E4800B01020408102040809002B5E47E42
:1001A600019360BCA3FF543F30E509541FFEE4935E
:1001B600A360010ECF54C025E060A840B8E493A325
:1001C600FAE493A3F8E493A3C8C582C8CAC583CA50
:1001D600F0A3C8C582C8CAC583CADFE9DEE780BE08
:0102DD000020
:00000001FF
