:0602CC0048656C6C6F0038
:10009700E4F508F5091202897B417D017F0112020F
:1000A700C27BFF7A0279CC7D037F01120200750EB5
:1000B700037B7B7A007D097F01120241750E027B6B
:1000C7001F7A007D017F0212015C750E087BAA7AF8
:1000D700007D047F02120195751A00751B02750ECB
:1000E70001AB1BAA1A7D0D7F02120241E4F508F548
:1000F70009750E01AB09AA087D0F7F021202417F25
:10010700E87E031202740509E50970020508C39425
:0B0117000AE5086480948040D880D185
:06029D00C2A58F80D2A76C
:0802A3007F027EEFDEFEDFFCAE
:0102AB002230
:0A02B800C2A612029DC2A70202A313
:10022300CFCDCFCECCCE1200427C007D0A1200424D
:04023300ED2430FF87
:0A023700D2A612029DC2A70202A384
:10025E00AE07BE0104ED148006BE0209ED243F4434
:06026E0080FF1202B8221D
:100289007F381202B87F0C1202B87F061202B87FBB
:04029900010202B8A4
:0A02C200AC0312025EAF0402023723
:060200008B0A8A0B890C39
:1002060012025EE4FDAB0AAA0BA90C8D827583006F
:0C021600120003FF60061202370D80E9A1
:0102220022B9
:0C01CD007F0AEA24FFFDE434FFFC7E0002
:0801D9008E0F8F108C118D12A6
:1001E1007F017E00E4FBEBC39512E5116480F87496
:0E01F1008098500AAC0FAD101200300B80E861
:0101FF0022DD
:040241008A0C8B0D8B
:1002450012025EAA0EEAD39400400D1201CDAC0C49
:08025500AD0D1202231A80ED29
:01025D00227E
:1001220012025EC3EA64809480400B7F2B12023776
:100132008A188B19800E7F2D120237C3E49BF519A2
:10014200E49AF518AA17EAD39400400D1201CDAC37
:0901520018AD191202231A80ED08
:01015B002281
:04015C008A0C8B0D71
:1001600012025EAA0EEAD3940040297F101201CF3A
:10017000AC0CAD0DCFCDCFCECCCE120042EF540F94
:10018000FEC3940AEE5004243080022437FF12028A
:04019000371A80D1C9
:010194002248
:040195008A0C8B0D38
:1001990012025EAA0EEAD394004028EA24FFFDE485
:1001A90034FFFC7F027E001201D9AC0CAD0DCFCD1E
:1001B900CFCECCCE120042EF54012430FF120237C9
:0301C9001A80D2C7
:0101CC002210
:10027400EF1FAC0670011E4C600A7D027CC7DCFED9
:04028400DDFC80EC31
:010288002253
:030000000202AC4D
:0C02AC00787FE4F6D8FD75811B020097F6
:10000300BB010CE58229F582E5833AF583E02250B2
:1000130006E92582F8E622BBFE06E92582F8E222FC
:0D002300E58229F582E5833AF583E4932216
:10003000EF8DF0A4A8F0CF8CF0A428CE8DF0A42EE4
:02004000FE229E
:10004200BC000BBE0029EF8DF084FFADF022E4CCA2
:10005200F875F008EF2FFFEE33FEEC33FCEE9DEC6B
:10006200984005FCEE9DFE0FD5F0E9E4CEFD22EDB1
:10007200F8F5F0EE8420D21CFEADF075F008EF2FFB
:10008200FFED33FD4007985006D5F0F222C398FDEC
:050092000FD5F0EA2289
:00000001FF
