:1001B0001201E1E4F51D851D1B7F0A7E0012020E6F
:1001C000051DE51DC3946440ED751D64E51DD394C4
:1001D0000040E0851D1B7F0A7E0012020E151D8067
:0101E000EB33
:03000B0002009A56
:10009A00C0E0C0F0C083C082C0D075D000C000C02C
:0D00AA0001C002C003C004C005C006C007AD
:1000B700758AA4758CFF051CE51C75F0648485F0B2
:1000C7001CE51CC3951B5004D2A08002C2A0051AD0
:1000D700E51A70020519C394C8E51994004009127E
:0800E7000177751900751A007C
:1000EF00D007D006D005D004D003D002D001D00065
:0B00FF00D0D0D082D083D0F0D0E0320F
:10020E00EF1FAC0670011E4C600A7D027CC7DCFE3F
:04021E00DDFC80EC97
:0102220022B9
:05000300E4AF20F52030
:0100080022D5
:1001F800E4FF20B1010F20B0027F0220B2027F038A
:0502080020B3027F0499
:01020D0022CE
:10017700851E1F1201F88F1EE51FB40107E51E70CB
:1001870003752001E51FB40207E51E700375200201
:10019700E51FB40307E51E7003752003E51FB404CC
:0801A70007E51E70037520043A
:0101AF00222D
:1002230011083F065B4F666D7D077F6F777C395EF4
:03023300797100DE
:10010A00EF14B40800505490011F75F003A4C5837E
:10011A0025F0C5837302013702013B02013F020148
:10012A004302014702014F02015702015FD2A48034
:10013A000ED2A48012D2A48016D2A4801AC2A4D24B
:10014A00A3D2A28016C2A4D2A3C2A2800EC2A4C203
:10015A00A3D2A28006C2A4C2A3C2A274082DF8E642
:0D016A00F5807F017E0012020EE4F5802278
:1001E1005389F0438901C28DD28C758CFF758AA425
:0701F100D2A9D2AFC2B9226E
:0300000002000EED
:0C000E00787FE4F6D8FD758120020055D3
:10001A000201B0E493A3F8E493A34003F68001F24B
:10002A0008DFF48029E493A3F85407240CC8C333E7
:10003A00C4540F4420C8834004F456800146F6DFB6
:10004A00E4800B0102040810204080900223E47E21
:10005A00019360BCA3FF543F30E509541FFEE493AB
:10006A00A360010ECF54C025E060A840B8E493A372
:10007A00FAE493A3F8E493A3C8C582C8CAC583CA9D
:10008A00F0A3C8C582C8CAC583CADFE9DEE780BE55
:0102360000C7
:00000001FF
