:10000E00120269E4F51B1200038F1CE51C640170DB
:10001E0043051E531E07E51E7002F51BE51EB401B7
:10002E0003751B0AE51EB40203751B19E51EB40306
:10003E0003751B28E51EB40403751B32E51EB405BB
:10004E0003751B4BE51EB40603751B5AE51EB4075C
:10005E0003751B64E51CB40205E4F51EF51BE51CD7
:10006E0064037048E51E7004F51E8002151EE51E21
:10007E007002F51BE51EB40103751B0AE51EB402E2
:10008E0003751B19E51EB40303751B28E51EB40486
:10009E0003751B32E51EB40503751B4BE51EB40636
:1000AE0003751B5AE51EB40703751B64E51EFD7C24
:0900BE00007F011201C3020014CD
:03000B000201539C
:10015300C0E0C0F0C083C082C0D075D000C000C072
:0D01630001C002C003C004C005C006C007F3
:10017000758AA4758CFF051DE51D75F0648485F0F6
:100180001DE51DC3951B5004D2908002C290051A34
:10019000E51A70020519C394C8E5199400400912C4
:0801A0000230751900751A0008
:1001A800D007D006D005D004D003D002D001D000AB
:0B01B800D0D0D082D083D0F0D0E03255
:10029600EF1FAC0670011E4C600A7D027CC7DCFEB7
:0402A600DDFC80EC0F
:0102AA002231
:05000300E4AF21F5212E
:0100080022D5
:10028000E4FF20B1010F20B0027F0220B2027F0301
:0502900020B3027F0411
:010295002246
:10023000851F201202808F1FE520B40107E51F7083
:1002400003752101E520B40207E51F700375210243
:10025000E520B40307E51F7003752103E520B4040E
:0802600007E51F70037521047E
:010268002273
:100269005389F0438901C28DD28C758CFF758AA49C
:07027900D2A9D2AFC2B922E5
:1002AB0011083F065B4F666D7D077F6F777C395E6C
:0302BB0079710056
:1001C300EF14B4080050549001D875F003A4C5830C
:1001D30025F0C583730201F00201F40201F8020164
:1001E300FC020200020208020210020218D2A480DA
:1001F3000ED2A48012D2A48016D2A4801AC2A4D292
:10020300A3D2A28016C2A4D2A3C2A2800EC2A4C249
:10021300A3D2A28006C2A4C2A3C2A274082DF8E688
:0D022300F5807F017E00120296E4F5802236
:030000000200C734
:0C00C700787FE4F6D8FD75812102010E5F
:1000D30002000EE493A3F8E493A34003F68001F235
:1000E30008DFF48029E493A3F85407240CC8C3332E
:1000F300C4540F4420C8834004F456800146F6DFFD
:10010300E4800B01020408102040809002ABE47EDF
:10011300019360BCA3FF543F30E509541FFEE493F1
:10012300A360010ECF54C025E060A840B8E493A3B8
:10013300FAE493A3F8E493A3C8C582C8CAC583CAE3
:10014300F0A3C8C582C8CAC583CADFE9DEE780BE9B
:0102BE00003F
:00000001FF
