:02004100AD0709
:10004300E4FB74807E00A803088006CEA2E713CEEB
:1000530013D8F8FFEDF582EF558224FF92B4D2B6A0
:0A006300C2B60BBB08DCD2B5C2B573
:01006D002270
:10006E00AE05AC07AF06120041AF047480A80708B6
:0A007E008002C313D8FCF4F58022C1
:10000300C2B6C2B57D3CE4FF12006E7D427F011291
:10001300006E7DA97F0212006E7D857F0312006E44
:100023007D857F0412006E7DA97F0512006E7D62BF
:0E0033007F0612006E7D3C7F0712006E80C6B5
:10008800EF1FAC0670011E4C600A7D027CC7DCFEC7
:04009800DDFC80EC1F
:01009C002241
:0300000002009D5E
:0C009D00787FE4F6D8FD758107020003AF
:00000001FF
