:080386004E756D6265723A00CC
:10022F0012031F7BFF7A0379867D017F011202562D
:10023F007F011201D68F1FEFFB7A00750C037D0132
:07024F007F021202D780FEBE
:10030A00EF1FAC0670011E4C600A7D027CC7DCFE42
:04031A00DDFC80EC9A
:01031E0022BC
:10009700E4F52620B1137F14FE12030A30B1FD7F69
:1000A700147E0012030A75260120B0147F147E0007
:1000B70012030A30B0FD7F147E0012030A75260270
:1000C70020B2147F147E0012030A30B2FD7F147E23
:1000D7000012030A75260320B3147F147E0012034F
:1000E7000A30B3FD7F147E0012030A752604AF267B
:0100F70022E6
:06034500C2A58F80D2A7C3
:08034B007F027EEFDEFEDFFC05
:010353002287
:0A036000C2A6120345C2A702034B18
:10029B00CFCDCFCECCCE1200427C007D0A120042D5
:0402AB00ED2430FF0F
:0A02AF00D2A6120345C2A702034BBA
:1002F400AE07BE0104ED148006BE0209ED243F449E
:0603040080FF12036022DD
:10031F007F381203607F0C1203607F061203607F29
:04032F000102036064
:0A036A00AC031202F4AF040202AF6C
:060256008B088A09890AE9
:10025C001202F4E4FDAB08AA09A90A8D8275830089
:0C026C00120003FF60061202AF0D80E9D3
:010278002263
:0C01A3007F0AEA24FFFDE434FFFC7E002C
:0801AF008E0D8F0E8C0F8D10D8
:1001B7007F017E00E4FBEBC39510E50F6480F874C4
:0E01C7008098500AAC0DAD0E1200300B80E88F
:0101D5002207
:0402D7008A0A8B0BF9
:1002DB001202F4AA0CEAD39400400D1201A3AC0A4B
:0802EB00AD0B12029B1A80ED1D
:0102F30022E8
:1000F8001202F4C3EA64809480400B7F2B1202AF93
:100108008A168B17800E7F2D1202AFC3E49BF5175A
:10011800E49AF516AA15EAD39400400D1201A3AC8F
:0901280016AD1712029B1A80EDBE
:0101310022AB
:040132008A1A8B1B7F
:100136001202F4AA1CEAD3940040297F101201A5EA
:10014600AC1AAD1BCFCDCFCECCCE120042EF540FA2
:10015600FEC3940AEE5004243080022437FF1202B4
:04016600AF1A80D17B
:01016A002272
:04016B008A238B2434
:10016F001202F4AA25EAD394004028EA24FFFDE402
:10017F0034FFFC7F027E001201AFAC23AD24CFCD44
:10018F00CFCECCCE120042EF54012430FF1202AF7B
:03019F001A80D2F1
:0101A200223A
:09037400D2A0D2A1C2A0C2A122B4
:07038E00C2A0D2A1D2A022FF
:02020600AD0742
:10020800E4FB74807E00A803088006CEA2E713CE24
:1002180013D8F8FFEDF582EF558224FF92A0D2A102
:06022800C2A10BBB08DCC3
:01022E0022AD
:1002B900E4FFD2A0FED2A130A00D7480A806088068
:0D02C90002C313D8FC4207C2A10EBE08E814
:0102D6002205
:09037D00A20092A0D2A1C2A122AB
:10033300D2A0D2A130A004D2008002C200C2A1A2E6
:0103430000B9
:010344002296
:100279008F1D8D1E1203747FA0120206120333AF65
:100289001D120206120333AF1E12020612033302B5
:02029900038ED2
:0201D6008F0890
:1001D8001203747FA0120206120333AF081202063C
:1001E8001203331203747FA11202061203331202A0
:0D01F800B98F09D20012037D12038EAF09EA
:0102050022D6
:03000000020354A4
:0C035400787FE4F6D8FD75812602022FA8
:10000300BB010CE58229F582E5833AF583E02250B2
:1000130006E92582F8E622BBFE06E92582F8E222FC
:0D002300E58229F582E5833AF583E4932216
:10003000EF8DF0A4A8F0CF8CF0A428CE8DF0A42EE4
:02004000FE229E
:10004200BC000BBE0029EF8DF084FFADF022E4CCA2
:10005200F875F008EF2FFFEE33FEEC33FCEE9DEC6B
:10006200984005FCEE9DFE0FD5F0E9E4CEFD22EDB1
:10007200F8F5F0EE8420D21CFEADF075F008EF2FFB
:10008200FFED33FD4007985006D5F0F222C398FDEC
:050092000FD5F0EA2289
:00000001FF
