:0D086F0054656D70657261747572653A00B4
:10055A0012087C7FE87E0312082612083B7BFF7A8A
:10056A0008796F7D017F011207661207E012087C85
:10057A001206168F248E238D228C21E4FFFEFDFCA9
:10058A00AB24AA23A922A8211202A1501E7B2D7DE9
:10059A00017F0212089FAF24AE23AD22AC211203C1
:1005AA001A8F248E238D228C2180097B2B7D017F3B
:1005BA000212089FAF24AE23AD22AC21120369AB0D
:1005CA0007AA06750C037D027F021207A77B2E7D00
:1005DA00057F0212089F7F007E407D1C7C46AB246B
:1005EA00AA23A922A8211200FBE4FBFAF9783F12F8
:1005FA00000A120369E47B107A27F9F81204BA7523
:0C060A000C047D067F021207A702057792
:10082600EF1FAC0670011E4C600A7D027CC7DCFE21
:04083600DDFC80EC79
:01083A00229B
:06086000C2A58F80D2A7A3
:080866007F027EEFDEFEDFFCE5
:01086E002267
:0A089500C2A6120860C2A70208669E
:10078900CFCDCFCECCCE1204297C007D0A1204290C
:04079900ED2430FF1C
:0A079D00D2A6120860C2A702086687
:10081000AE07BE0104ED148006BE0209ED243F447C
:0608200080FF1208952282
:10083B007F381208957F0C1208957F061208957F5A
:04084B000102089509
:0A089F00AC03120810AF0402079D1D
:060766008B088A09890AD4
:10076C00120810E4FDAB08AA09A90A8D8275830052
:0C077C001203EAFF600612079D0D80E9E1
:01078800224E
:0C070C007F0AEA24FFFDE434FFFC7E00BD
:080718008E0F8F108C118D1261
:100720007F017E00E4FBEBC39512E5116480F87451
:0E0730008098500AAC0FAD101204170B80E831
:01073E002298
:0407A7008A0A8B0B24
:1007AB00120810AA0CEAD39400400D12070CAC0AE5
:0807BB00AD0B1207891A80ED55
:0107C3002213
:10066100120810C3EA64809480400B7F2B12079D0F
:100671008A188B19800E7F2D12079DC3E49BF519F3
:10068100E49AF518AA17EAD39400400D12070CACAE
:0906910018AD191207891A80ED59
:01069A00223D
:04069B008A1C8B1D0D
:10069F00120810AA1EEAD3940040297F1012070EE9
:1006AF00AC1CAD1DCFCDCFCECCCE120429EF540F45
:1006BF00FEC3940AEE5004243080022437FF120741
:0406CF009D1A80D11F
:0106D3002204
:0406D4008A0C8B0DF4
:1006D800120810AA0EEAD394004028EA24FFFDE489
:1006E80034FFFC7F027E00120718AC0CAD0DCFCD95
:1006F800CFCECCCE120429EF54012430FF12079D2F
:030708001A80D282
:01070B0022CB
:1007E000D2B7C2B77FE3DFFED2B77F1DDFFEA2B76D
:0807F00092007FE3DFFEA2008E
:0107F80022DE
:10084F00C2B77F02DFFEA20092B77F16DFFED2B7DC
:01085F002276
:1007F900C2B77F01DFFED2B77F01DFFEA2B7920049
:060809007F14DFFEA200D7
:01080F0022C6
:02073F00AD0704
:10074100E4FB74017E00A803088005C333CE33CED9
:10075100D8F9FFEDF582EF558224FF920012084F80
:040761000BBB08DEE8
:010765002271
:1007C400E4FEFD1207F9500D7401A805088002C368
:0B07D40033D8FC42060DBD08EAAF065A
:0107DF0022F7
:0D087C001207E07FCC12073F7F4402073FC8
:100616001207E07FCC12073F7FBE12073F1207C4C6
:100626008F081207C48F09EFFB7A00750E087D0943
:100636007F011206D4E508FB7A00750E087D097F56
:10064600011206D4E509FEE508FFFDAC06EC12032F
:0B06560030E4FBFA79807841020204D6
:100003000203D5E86480F8E933E83360110460F053
:10001300ED33EC337009E8FCE9FDEAFEEBFF220463
:1000230060DED3EB9FEA9EE99DE8C2E78CF0C2F75E
:1000330095F0400CE8CCF8E9CDF9EACEFAEBCFFB2A
:100043001203A085D0F05804700320D5B3E80470E0
:10005300075002B2D50203DF92D5EC0460F7E4CC7B
:10006300C0E0C398F8603B94186008400DD0E0FBF3
:100073000203B7E4FBFAC9FC8028E830E406E4C9CC
:10008300FBE4CAFCE830E305E4C9CACBFCE8540747
:100093006010F8C3E913F9EA13FAEB13FBEC13FC52
:1000A300D8F130F52FC3E49CFCEF9BFFEE9AFEEDF5
:1000B30099FDD0E0FBEF4E4D4C701222DB0302039F
:1000C300DCEC2CFCEF33FFEE33FEED33FDED30E7DC
:1000D300EB0203B7EF2BFFEE3AFEED39FDD0E0FB69
:1000E30050130BBB00030203DFED13FDEE13FEEF12
:0800F30013FFEC13FC0203B73C
:1000FB00EC4D6011E8497017ED33EC3304600DE4FF
:10010B00FCFFFEFD22E933E8330470F80203D5123D
:10011B0003A058046009E4CC24815006285009023E
:10012B0003DF2840030203DCC0E0EB4A7044B980D4
:10013B0006D0E0FB0203CBEF4E701CBD8008EBFF3B
:10014B00EAFEE9FD80EBE98DF0A4FEE5F00201E4A7
:10015B00E9CDF9EAFEEBFFEF89F0A4FCE5F0CE89DF
:10016B00F0A42EFFE435F0CD89F0A42DFEE435F09C
:10017B008067EF4E7005BD80D780C3EF8BF0A4ACCA
:10018B00F0EE8BF0A42CFCE435F0F8EF8AF0A42C05
:10019B00E5F038FCE433CB8DF0A42CFCE5F03BF818
:1001AB00EE8AF0A42CFCE5F038F8E433CF89F0A408
:1001BB002CFCE5F038CF3400CE89F0A42FFFE5F00E
:1001CB003EFEE433C98DF0A42EFEE5F039CD8AF066
:1001DB00A42FFFE5F03EFEE43DFD33D0E0FB5007DE
:1001EB000BBB000F0203DFEC2CFCEF33FFEE33FEF7
:0601FB00ED33FD0203B725
:100201000203DFEC5D046005E8590470030203D5C5
:100211001203A0580460F6EC4860F2EC7004FDFE95
:10022100FF22C860DB2481C85009C39860025006D0
:100231000203DC9850CAF582E9294B4A7005AB826A
:100241000203CB75F0007C1A7880C3EF9BEE9AED28
:1002510099400DC3EF9BFFEE9AFEED99FDE842F048
:10026100DC23ACF0D0E0FFD0E0FED0E0FDAB82209B
:10027100E7101BEB60BAEC2CFCEF33FFEE33FEED25
:1002810033FD0203B7E803F830E705C0F075F0006D
:10029100EF2FFFEE33FEED33FD40B830E7C280AA09
:1002A10074F8CC6480CCC86480C8F58204604FC304
:1002B100EB9FF5F0EA9E42F0E99D42F0E89C45F0A3
:1002C100603C501DE5825FFFE582D313CB5BCBF42D
:1002D1002B5582FB50280ABA002409B90020088056
:1002E1001DE5825BFBE582D313CF5FCFF4C3132FF0
:1002F1005582FF50090EBE00050DBD00010CC3EB78
:100301009FF5F0EA9E42F0E99D42F0E89C45F060DD
:0903110007CC4820E701B3EC22FF
:10031A00ED33EC33600A047003BD8004ECB2E7FCF1
:01032A0022B0
:10032B0075F020800E75F010800575F0087D007E4D
:10033B00007F003392D530D50312054CEC334010BF
:10034B00EF33FFEE33FEED33FDEC33FCD5F0ED2256
:0E035B00E5F0247EA2D513CC92E7CDCEFF2292
:10036900EDD2E7CD33EC3392D524814006E4FFFE8C
:10037900FDFC22FCE4CFCECDCC24E0501174FF80EB
:10038900EDC3CC13CCCD13CDCE13CECF13CF047088
:07039900F030D5DE02054C37
:1003A000E9D2E7C933E833F892D5EDD2E7CD33ECA3
:0703B00033FC5002B2D5221C
:1003B700EC30E7100FBF000C0EBE00080DBD0004A7
:1003C7000BEB6014A2D5EB13FCED92E7FD2274FF53
:1003D700FCFDFEFF22E480F8A2D574FF13FC7D80AC
:0303E700E480EFC0
:030000000208896A
:0C088900787FE4F6D8FD75812402055A42
:1003EA00BB010CE58229F582E5833AF583E02250C8
:1003FA0006E92582F8E622BBFE06E92582F8E22212
:0D040A00E58229F582E5833AF583E493222B
:10041700EF8DF0A4A8F0CF8CF0A428CE8DF0A42EF9
:02042700FE22B3
:10042900BC000BBE0029EF8DF084FFADF022E4CCB7
:10043900F875F008EF2FFFEE33FEEC33FCEE9DEC80
:10044900984005FCEE9DFE0FD5F0E9E4CEFD22EDC6
:10045900F8F5F0EE8420D21CFEADF075F008EF2F10
:10046900FFED33FD4007985006D5F0F222C398FD01
:050479000FD5F0EA229E
:10047E0075F008758200EF2FFFEE33FECD33CDCC35
:10048E0033CCC58233C5829BED9AEC99E5829840B8
:10049E000CF582EE9BFEED9AFDEC99FC0FD5F0D695
:1004AE00E4CEFBE4CDFAE4CCF9A88222B800C1B9BF
:1004BE000059BA002DEC8BF084CFCECDFCE5F0CBFD
:1004CE00F97818EF2FFFEE33FEED33FDEC33FCEB36
:1004DE0033FB10D703994004EB99FB0FD8E5E4F9F1
:1004EE00FA227818EF2FFFEE33FEED33FDEC33FCDE
:1004FE00C933C910D7059BE99A4007EC9BFCE99AD2
:10050E00F90FD8E0E4C9FAE4CCFB2275F010EF2F16
:10051E00FFEE33FEED33FDCC33CCC833C810D70716
:10052E009BEC9AE899400AED9BFDEC9AFCE899F851
:0E053E000FD5F0DAE4CDFBE4CCFAE4C8F922E4
:0E054C00C3E49FFFE49EFEE49DFDE49CFC22C0
:00000001FF
