:10017500E4FDFC7F0112008F1200F28F19E5196072
:0A018500F77F647E0012015380EE44
:1001A600EF1FAC0670011E4C600A7D027CC7DCFEA8
:0401B600DDFC80EC00
:0101BA002222
:1000F200E4F51C20B1137F14FE1201A630B1FD7F7E
:10010200147E001201A6751C0120B0147F147E001B
:100112001201A630B0FD7F147E001201A6751C02EA
:1001220020B2147F147E001201A630B2FD7F147E2D
:10013200001201A6751C0320B3147F147E00120165
:10014200A630B3FD7F147E001201A6751C04AF1CFD
:01015200228A
:10018F005389F0438901758CFC758A18C28DD28C06
:07019F00D2A9D2AFC2B922C0
:1001BB0011083F065B4F666D7D077F6F777C395E5D
:0301CB0079710047
:10008F00EF14B4080050549000A475F003A4C58376
:10009F0025F0C583730200BC0200C00200C4020039
:1000AF00C80200CC0200D40200DC0200E4D2A4801B
:1000BF000ED2A48012D2A48016D2A4801AC2A4D2C7
:1000CF00A3D2A28016C2A4D2A3C2A2800EC2A4C27F
:1000DF00A3D2A28006C2A4C2A3C2A274082DF8E6BE
:0300EF00F5802277
:0501CF00007FE3DFFEEC
:0101D4002208
:04015300AD07AC0642
:10015700E4FBFAED25E0FFEC33FEC3EB9FEA9E508C
:0D0167000CB2A51201CF0BBB00010A80E60F
:010174002268
:03000000020003F8
:0C000300787FE4F6D8FD75811C02004AED
:10000F00020175E493A3F8E493A34003F68001F291
:10001F0008DFF48029E493A3F85407240CC8C333F2
:10002F00C4540F4420C8834004F456800146F6DFC1
:10003F00E4800B01020408102040809001BBE47E95
:10004F00019360BCA3FF543F30E509541FFEE493B6
:10005F00A360010ECF54C025E060A840B8E493A37D
:10006F00FAE493A3F8E493A3C8C582C8CAC583CAA8
:10007F00F0A3C8C582C8CAC583CADFE9DEE780BE60
:0101CE000030
:00000001FF
