:10035F00EF1FAC0670011E4C600A7D027CC7DCFEED
:04036F00DDFC80EC45
:010373002267
:06038800C2A58F80D2A780
:08038E007F027EEFDEFEDFFCC2
:010396002244
:0A03A200C2A6120388C2A702038E50
:1002F700CFCDCFCECCCE12004D7C007D0A12004D63
:04030700ED2430FFB2
:0A030B00D2A6120388C2A702038ED7
:10034900AE07BE0104ED148006BE0209ED243F4448
:0603590080FF1203A22246
:100374007F381203A27F0C1203A27F061203A27F0E
:04038400010203A2CD
:0A03AC00AC03120349AF0402030B77
:0602D4008B088A09890A6B
:1002DA00120349E4FDAB08AA09A90A8D82758300B5
:0C02EA0012000EFF600612030B0D80E9ED
:0102F60022E5
:0C02A1007F0AEA24FFFDE434FFFC7E002D
:0802AD008E0D8F0E8C0F8D10D9
:1002B5007F017E00E4FBEBC39510E50F6480F874C5
:0E02C5008098500AAC0DAD0E12003B0B80E885
:0102D3002208
:040315008A0A8B0BBA
:10031900120349AA0CEAD39400400D1202A1AC0AB7
:08032900AD0B1202F71A80ED82
:0103310022A9
:1001F600120349C3EA64809480400B7F2B12030BE1
:100206008A168B17800E7F2D12030BC3E49BF517FE
:10021600E49AF516AA15EAD39400400D1202A1AC91
:0902260016AD171202F71A80ED63
:01022F0022AC
:040230008A1A8B1B80
:10023400120349AA1CEAD3940040297F101202A396
:10024400AC1AAD1BCFCDCFCECCCE12004DEF540F98
:10025400FEC3940AEE5004243080022437FF1203B4
:040264000B1A80D120
:010268002273
:040269008A1F8B203D
:10026D00120349AA21EAD394004028EA24FFFDE4B1
:10027D0034FFFC7F027E001202ADAC1FAD20CFCD4E
:10028D00CFCECCCE12004DEF54012430FF12030B14
:03029D001A80D2F2
:0102A000223B
:100332005389F0438901C28DD28C758CFC758A1861
:07034200D2A9D2AFC2B9221B
:0B039700436C6F636B3A003A002000DB
:0400030002220000D5
:10012E001203321203747BFF7A0379977D017F01EC
:10013E001202D47BFF7A03799E7D087F021202D4CD
:10014E007BFF7A03799E7D057F021202D4E526FBA2
:10015E007A00750C027D067F02120315E524FB7AE8
:10016E0000750C027D097F02120315E525C3940A62
:10017E00501E7BFF7A0379A07D037F021202D4E525
:10018E0025FB7A00750C017D047F0212031580A3F6
:10019E00E525FB7A00750C027D037F0212031580A4
:0101AE0092BE
:03000B000201AF40
:0401AF00C0E0C0D01C
:1001B300758CFC758A180523E52370020522C39408
:1001C30001E522940040270524752200752300E5EC
:1001D30024943C40190526752400E526943C400EE2
:0E01E3000525752600E52594184003752500B6
:0501F100D0D0D0E03287
:030000000200A259
:0C00A200787FE4F6D8FD7581260200E9A5
:10000E00BB010CE58229F582E5833AF583E02250A7
:10001E0006E92582F8E622BBFE06E92582F8E222F1
:0D002E00E58229F582E5833AF583E493220B
:10003B00EF8DF0A4A8F0CF8CF0A428CE8DF0A42ED9
:02004B00FE2293
:10004D00BC000BBE0029EF8DF084FFADF022E4CC97
:10005D00F875F008EF2FFFEE33FEEC33FCEE9DEC60
:10006D00984005FCEE9DFE0FD5F0E9E4CEFD22EDA6
:10007D00F8F5F0EE8420D21CFEADF075F008EF2FF0
:10008D00FFED33FD4007985006D5F0F222C398FDE1
:05009D000FD5F0EA227E
:1000AE0002012EE493A3F8E493A34003F68001F239
:1000BE0008DFF48029E493A3F85407240CC8C33353
:1000CE00C4540F4420C8834004F456800146F6DF22
:1000DE00E4800B0102040810204080900003E47EAF
:1000EE00019360BCA3FF543F30E509541FFEE49317
:1000FE00A360010ECF54C025E060A840B8E493A3DE
:10010E00FAE493A3F8E493A3C8C582C8CAC583CA08
:10011E00F0A3C8C582C8CAC583CADFE9DEE780BEC0
:0100070000F8
:00000001FF
