:030000000203B147
:0C03B100787FE4F6D8FD75811102035638
:10000E00F921F980F9E1FA36FA8CFAD8FB23FB686C
:10001E00FBAAFBE9FC23FC5FFC8FFCC0FCEFFD1B85
:10002E00FD45FD6CFD91FDB4FDD5FDF4FE12FE2ED9
:10003E00FE47FE60FE77FE8EFEA3FEB6FEC8FEDA1B
:10004E00FEEBFEFAFF09FF170E0E0E0E0B0E100B37
:10005E0007090E0E0B101009120B0E1012100E0BBC
:10006E00FF020407090B0907040BFF020407090B23
:10007E000907020E0BFF020407090B0907040BFF09
:10008E00020407090B0907100E100E100E0E0BFFBF
:10009E000BFF0E100E100E0E0BFF070B09070907B4
:1000AE00040B070B0907090B0907101213150B098F
:1000BE0007090B1213150B10100E0C0B09120E095B
:1000CE000B0E0B120E09120E0B0BFF020407090B7F
:1000DE000907040BFF020407090B0907020E0BFFA9
:1000EE00020407090B0907040BFF020407090B0999
:1000FE0007100E100E100E0E0BFF0BFF0E100E1033
:10010E000E0E0BFF070B09070907040B070B090758
:10011E00090B090710FF020413151715131C17FFFF
:10012E00020413151715130E0E17FF0204131517DD
:10013E0015131C17FF02040E10131517151310FFBD
:10014E00020413151715131C17FF020413151715A8
:10015E00130E0E17FF020413151715131C17FF02AB
:10016E0004131517151310FF0204131010040404C2
:10017E00040201010101020101020101010101015B
:10018E000402010104010101010201010101020148
:10019E00010101020101010102010101010102013E
:1001AE00010101020101010102010101030102012C
:1001BE00010102010101010102010101020101011E
:1001CE00010101010102020101010101010101020E
:1001DE0001010102010101010201010101010101FF
:1001EE0001010102010101010101010101010201EF
:1001FE0001010102010101010201010101020101DE
:10020E0001010201010101010201010101020101CD
:10021E0001010201010103010201010102010101BB
:10022E0001010201010102010101010101010102AD
:10023E00020101010101010101020101010102019D
:10024E00010101020101010102010101010201018D
:10025E00010101020101010102010101010101017E
:10026E00010101020101010102010101010201016D
:10027E00010102010101010201010101010201015D
:10028E00010102010101010201010102010101014D
:02029E00040456
:10032E00BFFF05C28CC2A522EF25E0240EF582E4A4
:10033E003400F583E493F510740193F511E510F58F
:08034E008CE511F58AD28C2226
:0602A0008B088A09890A9F
:1002A600E4F50FE50FC3950E503EAB08AA09A90A5F
:1002B600850F827583001202EFFF12032EAB0BAA85
:1002C6000CA90D850F827583001202EFFF7E007C5C
:1002D600017DF412031C12038EC28CC2A57F647EBC
:0802E6000012038E050F80BB1E
:0102EE0022ED
:10035600120377750BFF750C01750D7B750E257BEA
:10036600FF7A0079561202A07FD07E0712038E8094
:01037600E2A4
:03000B000203A34A
:0E03A300C0E0E510F58C85118AB2A5D0E032DD
:10038E00EF1FAC0670011E4C600A7D027CC7DCFEBE
:04039E00DDFC80EC16
:0103A2002238
:100377005389F0438901758CFC758A18C28DD28C1C
:07038700D2A9D2AFC2B922D6
:1002EF00BB010CE58229F582E5833AF583E02250C4
:1002FF0006E92582F8E622BBFE06E92582F8E2220E
:0D030F00E58229F582E5833AF583E4932227
:10031C00EF8DF0A4A8F0CF8CF0A428CE8DF0A42EF5
:02032C00FE22AF
:00000001FF
