:10006E0000001B3CF8FC3B00001B3CFCFF3A000070
:10007E0000000B1C7C7E1B00001B3CFCFF3A0000AA
:10000300E4F509F50A1200C9E4F508E508250990A5
:10001300006E93FDAF0812008E0508E508C394082F
:1000230040E9050AE50AD3946440DDE4F50A74085F
:0E0033002509F509D3941840CFE4F50980CAD9
:1000A800EF1FAC0670011E4C600A7D027CC7DCFEA7
:0400B800DDFC80ECFF
:0100BC002221
:02004100AD0709
:10004300E4FB74807E00A803088006CEA2E713CEEB
:1000530013D8F8FFEDF582EF558224FF92B4D2B6A0
:0A006300C2B60BBB08DCD2B5C2B573
:01006D002270
:10008E00AE05AC07AF06120041AF047480A8070896
:0A009E008002C313D8FCF4F58022A1
:0500C900C2B6C2B52221
:030000000200BD3E
:0C00BD00787FE4F6D8FD75810A0200038C
:00000001FF
