:0C03620068656C6C6F20776F726C640033
:10028E0012033F7BFF7A0379627D017F011202B672
:10029E001200038F22E52260F7FB7A00750C027DB7
:0802AE00017F021202F780E853
:10032A00EF1FAC0670011E4C600A7D027CC7DCFE22
:04033A00DDFC80EC7A
:01033E00229C
:06035300C2A58F80D2A7B5
:080359007F027EEFDEFEDFFCF7
:010361002279
:0A037A00C2A6120353C2A7020359E2
:1002D900CFCDCFCECCCE12015B7C007D0A12015B63
:0402E900ED2430FFD1
:0A02ED00D2A6120353C2A702035960
:10031400AE07BE0104ED148006BE0209ED243F447D
:0603240080FF12037A22A3
:10033F007F3812037A7F0C12037A7F0612037A7FBB
:04034F000102037A2A
:0A038400AC03120314AF040202EDF3
:0602B6008B088A09890A89
:1002BC00120314E4FDAB08AA09A90A8D8275830008
:0C02CC0012011CFF60061202ED0D80E91B
:0102D8002203
:0C025B007F0AEA24FFFDE434FFFC7E0073
:080267008E0D8F0E8C0F8D101F
:10026F007F017E00E4FBEBC39510E50F6480F8740B
:0E027F008098500AAC0DAD0E1201490B80E8BC
:01028D00224E
:0402F7008A0A8B0BD9
:1002FB00120314AA0CEAD39400400D12025BAC0A51
:08030B00AD0B1202D91A80EDBE
:0103130022C7
:1001B000120314C3EA64809480400B7F2B1202ED7B
:1001C0008A168B17800E7F2D1202EDC3E49BF51764
:1001D000E49AF516AA15EAD39400400D12025BAC1E
:0901E00016AD171202D91A80EDC8
:0101E90022F3
:0401EA008A1A8B1BC7
:1001EE00120314AA1CEAD3940040297F1012025D58
:1001FE00AC1AAD1BCFCDCFCECCCE12015BEF540FD0
:10020E00FEC3940AEE5004243080022437FF1202FB
:04021E00ED1A80D184
:0102220022B9
:040223008A1F8B2083
:10022700120314AA21EAD394004028EA24FFFDE42C
:1002370034FFFC7F027E00120267AC1FAD20CFCDDA
:10024700CFCECCCE12015BEF54012430FF1202ED6A
:030257001A80D238
:01025A002281
:10000300E4F5087590FFC29320970C7F14FE12034A
:100013002A3097FD75080120960D7F147E00120388
:100023002A3096FD75080520950D7F147E00120376
:100033002A3095FD75080920940D7F147E00120364
:100043002A3094FD75080D7590FFC29220970D7F9D
:10005300147E0012032A3097FD75080220960D7F47
:10006300147E0012032A3096FD75080620950D7F35
:10007300147E0012032A3095FD75080A20940D7F23
:10008300147E0012032A3094FD75080E7590FFC28A
:100093009120970D7F147E0012032A3097FD750877
:1000A3000320960D7F147E0012032A3096FD7508F7
:1000B3000720950D7F147E0012032A3095FD7508E5
:1000C3000B20940D7F147E0012032A3094FD7508D3
:1000D3000F7590FFC29020970D7F147E0012032AA4
:1000E3003097FD75080420960D7F147E0012032AB5
:1000F3003096FD75080820950D7F147E0012032AA3
:100103003095FD75080C20940D7F147E0012032A90
:080113003094FD750810AF08DF
:01011B0022C1
:0300000002036E8A
:0C036E00787FE4F6D8FD75812202028E33
:10011C00BB010CE58229F582E5833AF583E0225098
:10012C0006E92582F8E622BBFE06E92582F8E222E2
:0D013C00E58229F582E5833AF583E49322FC
:10014900EF8DF0A4A8F0CF8CF0A428CE8DF0A42ECA
:02015900FE2284
:10015B00BC000BBE0029EF8DF084FFADF022E4CC88
:10016B00F875F008EF2FFFEE33FEEC33FCEE9DEC51
:10017B00984005FCEE9DFE0FD5F0E9E4CEFD22ED97
:10018B00F8F5F0EE8420D21CFEADF075F008EF2FE1
:10019B00FFED33FD4007985006D5F0F222C398FDD2
:0501AB000FD5F0EA226F
:00000001FF
