:0B03210041444A004E54430052470084
:100097001202F27BFF7A0379217D017F0112026947
:1000A7007BFF7A0379257D077F011202697BFF7A3F
:1000B7000379297D0D7F011202697F9412011D8E3C
:1000C700188F19750C04AB19AA187D017F0212024B
:1000D700AA7F0A7E001202DD7FD412011D8E1A8FBD
:1000E7001B750C04AB1BAA1A7D077F021202AA7F9D
:1000F7000A7E001202DD7FA412011D8E1C8F1D7562
:100107000C04AB1DAA1C7D0D7F021202AA7F0A7E7A
:06011700001202DD80A4CD
:1002DD00EF1FAC0670011E4C600A7D027CC7DCFE70
:0402ED00DDFC80ECC8
:0102F10022EA
:06030600C2A58F80D2A702
:08030C007F027EEFDEFEDFFC44
:0103140022C6
:0A032C00C2A6120306C2A702030CCA
:10028C00CFCDCFCECCCE1200427C007D0A120042E4
:04029C00ED2430FF1E
:0A02A000D2A6120306C2A702030C47
:1002C700AE07BE0104ED148006BE0209ED243F44CB
:0602D70080FF12032C223F
:1002F2007F3812032C7F0C12032C7F0612032C7FF3
:040302000102032CC5
:0A033600AC031202C7AF040202A0DC
:060269008B088A09890AD6
:10026F001202C7E4FDAB08AA09A90A8D82758300A3
:0C027F00120003FF60061202A00D80E9CF
:01028B002250
:0C0236007F0AEA24FFFDE434FFFC7E0098
:080242008E0D8F0E8C0F8D1044
:10024A007F017E00E4FBEBC39510E50F6480F87430
:0E025A008098500AAC0DAD0E1200300B80E8FB
:010268002273
:0402AA008A0A8B0B26
:1002AE001202C7AA0CEAD39400400D120236AC0A11
:0802BE00AD0B12028C1A80ED59
:0102C6002215
:10018B001202C7C3EA64809480400B7F2B1202A03B
:10019B008A168B17800E7F2D1202A0C3E49BF517D6
:1001AB00E49AF516AA15EAD39400400D120236AC68
:0901BB0016AD1712028C1A80ED3A
:0101C4002218
:0401C5008A208B21E0
:1001C9001202C7AA22EAD3940040297F10120238EA
:1001D900AC20AD21CFCDCFCECCCE120042EF540F03
:1001E900FEC3940AEE5004243080022437FF120221
:0401F900A01A80D1F7
:0101FD0022DF
:0401FE008A258B269D
:100202001202C7AA27EAD394004028EA24FFFDE499
:1002120034FFFC7F027E00120242AC25AD26CFCD18
:10022200CFCECCCE120042EF54012430FF1202A0F6
:030232001A80D25D
:0102350022A6
:02011D00AD072C
:10011F00E4F508F509C2B5C2B6FB74807E00A803EA
:10012F00088006CEA2E713CE13D8F8FFEDF582EFC5
:10013F00558224FF92B4D2B6C2B60BBB08DCE4FBE7
:10014F00D2B6C2B630B714E47E80A803088005CEBD
:10015F00C313CE13D8F94209EE42080BBB10E1D2FC
:10016F00B5ED30E306E508FF7E0022E508C4F8543C
:0B017F00F0C868FEE509C4540F48FFFB
:01018A002252
:03000000020315E3
:0C031500787FE4F6D8FD75812702009780
:10000300BB010CE58229F582E5833AF583E02250B2
:1000130006E92582F8E622BBFE06E92582F8E222FC
:0D002300E58229F582E5833AF583E4932216
:10003000EF8DF0A4A8F0CF8CF0A428CE8DF0A42EE4
:02004000FE229E
:10004200BC000BBE0029EF8DF084FFADF022E4CCA2
:10005200F875F008EF2FFFEE33FEEC33FCEE9DEC6B
:10006200984005FCEE9DFE0FD5F0E9E4CEFD22EDB1
:10007200F8F5F0EE8420D21CFEADF075F008EF2FFB
:10008200FFED33FD4007985006D5F0F222C398FDEC
:050092000FD5F0EA2289
:00000001FF
