:10016A001204A012048EE4F52812044FEF70030261
:10017A00024E12049D8F2DE52D64097051052E53F0
:10018A002E07E52E7004FF1204A3E52EB401057FA5
:10019A000A1204A3E52EB402057F191204A3E52E60
:1001AA00B403057F281204A3E52EB404057F321296
:1001BA0004A3E52EB405057F4B1204A3E52EB4066D
:1001CA00057F5A1204A3E52E640770788065E52D31
:1001DA00B41607E4F52EF528806AE52D64157057E4
:1001EA00E52E7004F52E8002152EE52E7004FF12FE
:1001FA0004A3E52EB401057F0A1204A3E52EB40276
:10020A00057F191204A3E52EB403057F281204A35F
:10021A00E52EB404057F321204A3E52EB405057F4A
:10022A004B1204A3E52EB406057F5A1204A3E52E49
:10023A00B407117F64800AE52DB40808752E047F7F
:10024A004B1204A3E52EFD7C007F01120357020125
:01025A007330
:10000600EF1FAC0670011E4C600A7D027CC7DCFE49
:04001600DDFC80ECA1
:01001A0022C3
:05048800E4AF2CF52C8F
:01048D00224C
:10041400E4FF20B1010F20B0027F0220B2027F036B
:0504240020B3027F047B
:0104290022B0
:1003C400852A2B1204148F2AE52BB40107E52A7021
:1003D40003752C01E52BB40207E52A7003752C0282
:1003E400E52BB40307E52A7003752C03E52BB4044D
:0803F40007E52A7003752C04D3
:0103FC0022DE
:10042A0011083F065B4F666D7D077F6F777C395EEB
:03043A00797100D5
:10035700EF14B40800505490036C75F003A4C583E0
:1003670025F0C5837302038402038802038C02030A
:100377009002039402039C0203A40203ACD2A4805C
:100387000ED2A48012D2A48016D2A4801AC2A4D2FC
:10039700A3D2A28016C2A4D2A3C2A2800EC2A4C2B4
:1003A700A3D2A28006C2A4C2A3C2A274082DF8E6F3
:0D03B700F5807F017E00120006E4F5802233
:1003FD0053890F438901C28FD28E758DFF758BA4E2
:07040D00D2ABD2AFC2BB224B
:0B046900D288C289D2A8D2AFD2B8223C
:06048E0012043E020469A5
:0D044F00E5206006E4F5207F01227F0022F9
:0D045C00E51F6006E4F51F7F01227F0022EE
:03049A00AF1D2271
:03049D00AF1C226F
:0300030002001EDA
:10001E00C0E0C0F0C083C082C0D075D000C000C0A8
:10002E0001C002C003C004C005C006C007E51970B8
:10003E000CFFFE1204747F011204948049E51964CA
:10004E0001704912047F8E1A8F1BE4FFFE12047496
:10005E00D3E51B94CDE51A942E4010E51B9466E56E
:10006E001A9432500675190202014FD3E51B94B350
:10007E00E51A94264010E51B944DE51A942A500675
:10008E00751F0102014775190102014FE51964023E
:10009E00600302014F12047F8E1A8F1BE4FFFE12C3
:1000AE000474D3E51B943BE51A9402402CE51B9493
:1000BE00D5E51A94055022E51E131313541F24225E
:1000CE00F8C000E6FFE51E5407FE7401A80608807E
:1000DE0002C333D8FCF45F8034D3E51B944DE51A8C
:1000EE0094064030E51B94E7E51A94095026E51E68
:1000FE00131313541F2422F8C000E6FFE51E540705
:10010E00FE7401A806088002C333D8FC4FD000F657
:10011E00051E8006751E00751901E51EC39420404C
:10012E0020751E00E523F4B5220FE525F4B524094C
:10013E0075200185221D85241CE4FF120494751977
:10014E0000D007D006D005D004D003D002D001D005
:0C015E0000D0D0D082D083D0F0D0E032AE
:10043E005389F0438901C28DC28C758A66758CFC16
:01044E00228B
:0B047400AD07AC068C8CAF058F8A2210
:09047F00AF8CEFFEAD8AEDFF2207
:06049400EF24FF928C2210
:0304A0000203FD57
:0304A3008F28227D
:03001B000202E7F7
:1002E700C0E0C0F0C083C082C0D075D000C000C0DD
:0D02F70001C002C003C004C005C006C0075E
:10030400758BA4758DFF0529E52975F0648485F046
:1003140029E529C395285004D2908002C29005276C
:10032400E52770020526C394C8E526940040091207
:0803340003C4752600752700C3
:10033C00D007D006D005D004D003D002D001D00015
:0B034C00D0D0D082D083D0F0D0E032BF
:0300000002025B9E
:0C025B00787FE4F6D8FD75812E0202A227
:1002670002016AE493A3F8E493A34003F68001F242
:1002770008DFF48029E493A3F85407240CC8C33398
:10028700C4540F4420C8834004F456800146F6DF67
:10029700E4800B010204081020408090042AE47EC9
:1002A700019360BCA3FF543F30E509541FFEE4935C
:1002B700A360010ECF54C025E060A840B8E493A323
:1002C700FAE493A3F8E493A3C8C582C8CAC583CA4E
:1002D700F0A3C8C582C8CAC583CADFE9DEE780BE06
:01043D0000BE
:00000001FF
